:020000040800F2
:100000000080002059020008A1020008A102000897
:10001000A1020008A1020008A102000800000000DF
:10002000000000000000000000000000A102000825
:10003000A102000800000000A1020008A1020008BF
:10004000A1020008A1020008A1020008A102000804
:10005000A1020008A1020008A1020008A1020008F4
:10006000A1020008A1020008A1020008A1020008E4
:10007000A1020008A1020008A1020008A1020008D4
:10008000A1020008A1020008A1020008A1020008C4
:10009000A1020008A1020008A1020008A1020008B4
:1000A000A1020008A1020008A1020008A1020008A4
:1000B000A1020008A1020008A1020008A102000894
:1000C000A1020008A1020008A1020008A102000884
:1000D000A1020008A1020008A1020008A102000874
:1000E000A1020008A1020008A1020008A102000864
:1000F000A102000800000000A1020008A1020008FF
:100100000000000000000000A1020008A102000899
:10011000A1020008A1020008A102000800000000DE
:10012000A102000800000000000000000000000024
:0C01300000000000000000005FF808F173
:10013C0010B5054C237833B9044B13B10448AFF315
:10014C0000800123237010BD00000020000000007F
:10015C00EC02000808B5034B1BB103490348AFF38D
:10016C00008008BD0000000004000020EC02000824
:10017C0070474FF001012D4801602D4801602D485A
:10018C00016070474FF001012B4801602B48016062
:10019C00704701B43846013818BFFCE701BC704702
:1001AC00274801687047FFF7E4FFFFF7EBFF254B8B
:1001BC00DFF894A04FF000014FF000054FF0000461
:1001CC004FF0000742F604194FF0000B4FF0010CF2
:1001DC004FF00001FFF7E4FFC3F800C0012C07BF8C
:1001EC004FF40277CAF800B04FF48267CAF800C027
:1001FC00FFF7CFFFC3F800B0A9EB0707FFF7C9FF64
:10020C0001291CBF0025E5E7A94208BFE2E74FF032
:10021C00010584F00104DDE70C0300080000002058
:10022C0000000020000000201C0000208403474236
:10023C00800347428803474268004142388040426D
:10024C0000024042B40241429C824042FFF790FFC0
:10025C000B480C490C4A002302E0D458C450043318
:10026C00C4188C42F9D3094A094C002301E01360ED
:10027C000432A242FBD300F00FF8FFF794FF704753
:10028C0000000020000000200C03000800000020EB
:10029C001C000020FEE7000070B500260C4D0D4C34
:1002AC00641BA410A64209D100F01AF800260A4DCE
:1002BC000A4C641BA410A64205D170BD55F8043B32
:1002CC0098470136EEE755F8043B98470136F2E7BC
:1002DC0004030008040300080403000808030008D2
:1002EC00F8B500BFF8BC08BC9E467047F8B500BF17
:0802FC00F8BC08BC9E467047E7
:04030400610100088B
:040308003D010008AB
:040000050800025994
:00000001FF
