:020000040800F2
:1000000000800020610300084D0300084F03000832
:1000100051030008530300085503000800000000C6
:10002000000000000000000000000000570300086E
:1000300059030008000000005B0300085D0300088E
:10004000A9030008A9030008A9030008A9030008E0
:10005000A9030008A903000825030008A903000854
:10006000A9030008A9030008A9030008A9030008C0
:10007000A9030008A9030008A9030008A9030008B0
:10008000A9030008A9030008A9030008A9030008A0
:10009000A9030008A9030008A9030008A903000890
:1000A000A9030008A9030008A9030008A903000880
:1000B00009030008A9030008A9030008A903000810
:1000C000A9030008A9030008A9030008A903000860
:1000D000A9030008A9030008A9030008A903000850
:1000E000A9030008A9030008A9030008A903000840
:1000F000A903000800000000A9030008A9030008E4
:100100000000000000000000A9030008A903000887
:10011000A9030008A9030008A903000800000000C3
:10012000A90300080000000000000000000000001B
:0C01300000000000000000005FF808F173
:10013C0010B5054C237833B9044B13B10448AFF315
:10014C0000800123237010BD00000020000000007F
:10015C00F403000808B5034B1BB103490348AFF384
:10016C00008008BD0000000004000020F40300081B
:10017C0008B500F07BF800F011F800F055F800F02D
:10018C0021F8FEE782B00023019302E0019B0133CA
:10019C000193019B8342F9D302B07047074AD3699C
:1001AC0043F00203D361064B1A6802F440421A6012
:1001BC001A6842F480421A60704700BF003802404F
:1001CC0000040240154BDA6942F00102DA61144A6C
:1001DC00116801F003011160D16801F00301D160D5
:1001EC00A2F57C42116841F001011160916841F067
:1001FC00010191601A6A42F001021A62A3F59C3364
:10020C009A6822F00F029A609A689A60054B202235
:10021C0083F8062340221A60704700BF0038024062
:10022C000000024000E100E00E4A536A43F0010373
:10023C0053624FF0804347F6FF429A6240F2E73236
:10024C00DA62DA6842F00102DA601A6842F00102FE
:10025C001A60054B302283F81C234FF080521A6031
:10026C00704700BF0038024000E100E0214A1368EB
:10027C0043F0010313601F4B1B6813F0020FFAD0FD
:10028C001D4B1A6842F004021A601A6842F002020E
:10029C001A601A6842F001021A60A3F580639A682A
:1002AC009A609A689A609A689A609A6822F4803286
:1002BC009A609A6842F480229A609A6842F48002AA
:1002CC009A601A6842F080721A600A4B1B6813F02D
:1002DC00007FFAD0074B9A6822F003029A609A6862
:1002EC0042F003029A60034B9B6803F00C030C2B47
:1002FC00F9D1704700380240003C02404FF0804278
:10030C00136923F00103136102F50132536983F081
:10031C00800353617047000008B54FF47A70FFF703
:10032C0031FF064A536943F0010353614FF0804299
:10033C00136883F00103136008BD00BF0004014083
:10034C00FEE7FEE7FEE7FEE7FEE770477047704703
:10035C0070477047FFF7FDFF0B480C490C4A002310
:10036C0002E0D458C4500433C4188C42F9D3094A5F
:10037C00094C002301E013600432A242FBD300F0CD
:10038C000FF8FFF7F5FE704700000020000000207A
:10039C0014040008000000201C000020FEE70000F0
:1003AC0070B500260C4D0D4C641BA410A64209D14F
:1003BC0000F01AF800260A4D0A4C641BA410A64241
:1003CC0005D170BD55F8043B98470136EEE755F85A
:1003DC00043B98470136F2E70C0400080C040008B3
:1003EC000C04000810040008F8B500BFF8BC08BCE9
:1003FC009E467047F8B500BFF8BC08BC9E467047D7
:04040C006101000882
:040410003D010008A2
:04000005080003618B
:00000001FF
