:020000040800F2
:1000000000800020ED050008D9050008DB05000888
:10001000DD050008DF050008E1050008000000001C
:10002000000000000000000000000000E3050008E0
:10003000E505000800000000E7050008E9050008E4
:1000400035060008350600083506000835060008A4
:1000500035060008350600088D040008350600083E
:100060003506000835060008350600083506000884
:100070003506000835060008350600083506000874
:100080003506000835060008350600083506000864
:100090003506000835060008350600083506000854
:1000A0003506000835060008350600083506000844
:1000B00071040008350600083506000835060008FA
:1000C0003506000835060008350600083506000824
:1000D0003506000835060008B50400083506000896
:1000E0003506000835060008350600083506000804
:1000F0003506000800000000350600083506000837
:100100000000000000000000350600083506000869
:100110003506000835060008350600080000000016
:10012000350600080000000000000000000000008C
:0C01300000000000000000005FF808F173
:10013C0010B5054C237833B9044B13B10448AFF315
:10014C0000800123237010BD64000020000000001B
:10015C00E412000808B5034B1BB103490348AFF385
:10016C00008008BD0000000068000020E4120008B8
:10017C00034613F8012B002AFBD1181A01387047DB
:10018C0030B583B03D4B00221A7005223C493D48E6
:10019C0000F0A4FA002830D005223B49394800F081
:1001AC009DFA002841D004223849364800F096FACE
:1001BC00002846D006223649324800F08FFA002833
:1001CC0055D10DF1060233492E4800F05BFABDF80B
:1001DC000620A2F164039BB241F224318B423CD83D
:1001EC00013A4FF08043DA6200225A622A4C2B4DBE
:1001FC000FCD0FC42B68238005E0274C284D0FCD65
:10020C000FC42B682370244C204600F0B9F94FF42E
:10021C0080752A4600211B4800F02CFA2A46002142
:10022C00204600F027FA03B030BD4FF0804213682F
:10023C0043F0010313601B4A174B07CA03C31A8010
:10024C00E1E74FF08042136823F001031360164A74
:10025C00114B07CA03C31A70D5E70F4C134D0FCDC2
:10026C000FC495E8030044F8040B2170CBE70A4C4B
:10027C000F4D0FCD0FC42B682370C4E780000020F6
:10028C000813000884000020241300083813000809
:10029C004C13000854130008840100205C13000860
:1002AC00101300082C1300084013000870130008EA
:1002BC008813000808B54FF480720021094800F03B
:1002CC00D9F900F087F800F01DF800F061F800F0A3
:1002DC002DF800F009F9044B1B78002BFBD0FFF72D
:1002EC004FFFF8E7840000208000002082B000233C
:1002FC00019302E0019B01330193019B8342F9D3EB
:10030C0002B07047074AD36943F00203D361064B2E
:10031C001A6822F440421A601A6842F480421A6049
:10032C00704700BF0038024000040240154BDA69E8
:10033C0042F00102DA61144A116821F003011160E4
:10034C00D16821F00301D160A2F57C42116841F023
:10035C0001011160916841F0010191601A6A42F04B
:10036C0001021A62A3F59C339A6822F00F029A607C
:10037C009A689A60054B202283F8062340221A6063
:10038C00704700BF003802400000024000E100E06E
:10039C000E4A536A43F0010353624FF0804347F611
:1003AC00FF429A6240F2E732DA62DA6842F0010206
:1003BC00DA601A6842F001021A60054B302283F8A9
:1003CC001C234FF080521A60704700BF0038024067
:1003DC0000E100E0214A136843F0010313601F4B56
:1003EC001B6813F0020FFAD01D4B1A6842F004027E
:1003FC001A601A6842F002021A601A6842F001028E
:10040C001A60A3F580639A689A609A689A609A68F1
:10041C009A609A6822F480329A609A6842F4802238
:10042C009A609A6842F480029A601A6842F080726C
:10043C001A600A4B1B6813F0007FFAD0074B9A68BE
:10044C0022F003029A609A6842F003029A60034B0E
:10045C009B6803F00C030C2BF9D170470038024059
:10046C00003C02404FF08042136923F001031361FA
:10047C0002F50132536983F0800353617047000029
:10048C0008B54FF47A70FFF731FF064A536943F011
:10049C00010353614FF08042136883F00103136032
:1004AC0008BD00BF000401400C4B1B6813F0200F6B
:1004BC0013D010B50A4C2046FFF75AFE074B5B6869
:1004CC002354DBB20A2B00D010BD0138235C0D2B5A
:1004DC00FAD1044B01221A70F6E770470044004031
:1004EC008400002080000020234B5A6A42F4003222
:1004FC005A62DA6942F00102DA61A3F560531A68B4
:10050C0022F030021A601A6822F0C0021A601A68CF
:10051C0042F020021A601A6842F080021A601A6ACD
:10052C0022F470621A621A6A22F470421A621A6A0F
:10053C0042F4E0621A621A6A42F4E0421A62A3F5CB
:10054C00DE334FF48B729A60DA6842F00802DA609C
:10055C00DA6842F00402DA60DA6842F40052DA60D7
:10056C00DA6842F02002DA60044B102283F826236A
:10057C0040225A60704700BF0038024000E100E0A2
:10058C0038B50546FFF7F4FD2A180E4B19889B78F1
:10059C00295293700C4A136823F040031360002413
:1005AC0009E02A5D084B5A60074B1B6813F0400F9B
:1005BC00FAD00134E4B22846FFF7DAFD8442F0D3D6
:1005CC0038BD00BF9C13000800440040FEE7FEE766
:1005DC00FEE7FEE7FEE770477047704770477047CD
:1005EC00FFF7FDFF0B480C490C4A002302E0D458DE
:1005FC00C4500433C4188C42F9D3094A094C002363
:10060C0001E013600432A242FBD300F00FF8FFF7B5
:10061C0051FE7047000000206400002028150008DF
:10062C006400002098020020FEE7000070B5002650
:10063C000C4D0D4C641BA410A64209D100F04CFECD
:10064C0000260A4D0A4C641BA410A64205D170BDAD
:10065C0055F8043B98470136EEE755F8043B9847AC
:10066C000136F2E7201500082015000820150008B7
:10067C002415000803460244934200D1704703F846
:10068C00011BF9E70EB44FF4017230B59CB01FACEE
:10069C0054F8045BADF8142002900690FFF768FD47
:1006AC000B4B03900B9300230F9314934FF6FF7394
:1006BC0007900848ADF816302A46234602A9006870
:1006CC00019400F079F81CB0BDE8304003B07047DD
:1006DC00E50600080000002000207047034610B516
:1006EC0072B10139841813F8010B11F8012F9042E3
:1006FC0001D1A34201D1801A10BD0028F3D1FAE731
:10070C001046F9E738B54B1C144603D14FF0FF35B2
:10071C00284638BD9389CDB223F020039381636BB7
:10072C0052688BB1A36B934208DD23685A1E22607A
:10073C0003F8015C636801336360E9E7214600F06C
:10074C0031FC0028F1D0E1E72169236851B19942CD
:10075C0008D213F8011CA94204D1013B01322360D9
:10076C006260D5E7C4E90F3204F1440363630323E9
:10077C00A363234603F8465F23600123DCE710B52F
:10078C000C46496B69B104F14403994201D000F065
:10079C0065FC0020236C6063636013B1E36B236022
:1007AC0010BD23694FF0FF30236000236360A389E1
:1007BC0043F02003A381F3E72DE9F0470C46002119
:1007CC000646ADF5227DCDE94411A7490DF104088B
:1007DC00A091A649A64FDFF89C92CDF81881A19163
:1007EC0000931378002B00F05C81D95D551C11F03F
:1007FC00080119D06368002B0FDD23681A78BA5CE6
:10080C00120701D42A46ECE7459A0133013245928E
:10081C0062682360013A6260ECE721463046A19B96
:10082C0098470028E9D0EDE7252B12D09A4663684B
:10083C00002B40F3948022681378534540F03181AB
:10084C0063680132013B6360459B22600133459331
:10085C00D8E74191439153782A2B04BF1023951C60
:10086C004FF00A0208BF4193AA461AF8011BA1F1E6
:10087C003003092B1DD903227E4800F0D3FB40B175
:10088C0001235546A0EB090003FA00F0419B1843E5
:10089C00419015F8013B782B06D8572B10D8252BF7
:1008AC00C4D057D8002B65D0032347930A23429317
:1008BC0072E0439B554602FB031130394391D3E759
:1008CC00A3F15802202AEFD801A151F822F000BF61
:1008DC008F090008B5080008B5080008ED090008E4
:1008EC00B5080008B5080008B5080008B5080008E8
:1008FC00B5080008B5080008B5080008030A000888
:10090C00D909000867090008670900086709000889
:10091C00B5080008DD090008B5080008B50800088E
:10092C00B5080008B5080008130A0008E509000816
:10093C0087090008B5080008B50800080F0A000868
:10094C00B5080008D9090008B5080008B508000862
:10095C008F090008453B022BA6D805231BE0214636
:10096C003046A19B984700283FF465AF4498002877
:10097C0040F08D804FF0FF308FE0419A42F0200222
:10098C004192419A42F40072419210226F2B34BF73
:10099C0003230423429247936368002B42DD419B5F
:1009AC00590604D423681A78BA5C120741D4479BC1
:1009BC00022B50DC6B462246304641A900F076F8FB
:1009CC0001286ED002287FF41DAFCFE70A22DDE7A5
:1009DC00002342930323DEE7082342930423DAE740
:1009EC002946404600F0B4F9419B054643F04003CC
:1009FC0041930123CFE7419B43F0400341930023F4
:100A0C00C9E70223C7E74198C3063FF5FBAE009B3D
:100A1C00459A191D00911B6810F0010F14BF1A8024
:100A2C001A60EFE621463046A19B98470028B6D0C5
:100A3C009CE7459A013245926268013A002A62604D
:100A4C0002DD01332360ADE721463046A19B984778
:100A5C000028A7D08AE7042B0EDC6B4622463046D2
:100A6C0041A900F07DF8ABE7110700088B070008DF
:100A7C00BF1300089F1300080B4B002B3FF4C2AEB2
:100A8C006B462246304641A9AFF3008098E7A38914
:100A9C0013F0400F18BF4FF0FF300DF5227DBDE86D
:100AAC00F0874498F9E700BF000000002DE9F843F7
:100ABC0015468A6880460C4632B98A69002A0CBFF2
:100ACC0001224FF0FF328A6000272268DFF88C90F9
:100ADC00D1065FBF1A68111D19601668A06988B12C
:100AEC00012807D12B681A7863699B5C53B9002FD6
:100AFC0031D022E0022820D12B681B7813F8093062
:100B0C001B071AD423680137DA065EBF2B681B78E3
:100B1C0006F8013B2A686B6801322A60A268013B27
:100B2C00013A6B60A26042B1002BD7DC29464046EB
:100B3C00D4F8803198470028D0D0236813F01003E4
:100B4C0005D1E2680132E260A26902B13370002083
:100B5C0023693B442361BDE8F88300BFBF13000841
:100B6C002DE9F04F0C469846754B87B082461646D9
:100B7C0093E8070003AB83E80700724BA169724A44
:100B8C002746032918BF1A46A36801925A1EB2F5CC
:100B9C00AE7F81BF6FF4AE7503EB050940F25D13B8
:100BAC00A36057F81C3B98BF4FF000093D464FF02F
:100BBC00000B43F450632360316803AB02220978C5
:100BCC0053F82B0000F02EFA28B3BBF1010F59D1CA
:100BDC0062682AB908232268636042F400722260BA
:100BEC00226822F4A0622260A268511EA16092B118
:100BFC003268511C3160127805F8012B7268013A89
:100C0C00002A726007DC31465046D4F880219047A8
:100C1C00002840F085800BF1010BBBF1030FCBD109
:100C2C0063680BB90A236360636848496069C91A31
:100C3C0000F08EF84FF0000BA3682268002B3DD01B
:100C4C003168606991F800C010F80C00002835D0AC
:100C5C00BCF1300F24D1100522D50BF1010BB9F1E9
:100C6C00000F03D0013309F1FF39A3607368013B16
:100C7C00002B73601BDD336801333360A368013BC9
:100C8C00A360D9E7BBF1020FAED1226802F4C061B8
:100C9C00B1F5007FBFD1102342F480726360A2E7EC
:100CAC0022F4106222600B7805F8013BDEE7314636
:100CBC005046D4F8803198470028DFD02368DB05F4
:100CCC000DD5BD4209D915F8011C32465046D4F851
:100CDC007C3105F1FF3998474D46BD422DD0226835
:100CEC0012F0100213D12A70394663685046019EE7
:100CFC00B0472168D8F8003011F0200F13D01A1D1E
:100D0C00C8F800201B681860E3680133E36000201A
:100D1C00ED1BAB4425695D44256107B0BDE8F08F40
:100D2C004FF0000BCAE71A1DC8F800201B6811F021
:100D3C00010F14BF18801860E6E70120EDE700BF33
:100D4C00FC120008AD0F0008C50E0008BC1300080B
:100D5C0070B50B7804465E2B13BF002201224B7832
:100D6C00481C08BF881C04F1FF05611E01F8012F07
:100D7C00A942FBD10BB9013870BD82F001020546C6
:100D8C00E254284610F8011B2D2906D05D29F3D01A
:100D9C0009B92846F0E70B46F1E76E785D2EFAD0DC
:100DAC00B342F8DC1946023501318E426254FBDC49
:100DBC00F11A0139B342A8BF0021581C4318E0E7CF
:100DCC00012B2DE9F047804601D0242B06D900F0E9
:100DDC0021F9162303600020BDE8F0870D46354F3E
:100DEC00284615F8014BE65D16F00806F8D12D2CB7
:100DFC002FD101262C78851C002B57D0102B09D114
:100E0C00302C07D1287800F0DF00582849D1102366
:100E1C006C780235002706F1004E0EF1FF3EBEFB4A
:100E2C00F3F9384603FB19EAA4F1300CBCF1090FB5
:100E3C0014D86446A34222DD002F1DDB81451BD351
:100E4C0001D1A24518DB012700FB034015F8014B2B
:100E5C00EAE72B2C04BF2C78851CCDE7A4F1410CC0
:100E6C00BCF1190F01D8373CE4E7A4F1610CBCF1DB
:100E7C00190F04D8573CDDE74FF0FF37E6E7002F9A
:100E8C0007DA22237046C8F80030002AA4D0691E65
:100E9C0005E006B14042002A9ED0002FF7D1116028
:100EAC009AE73024002BB5D10823B3E7302CA9D016
:100EBC000A23AFE7BF130008FFF782BF2DE9F04309
:100ECC0086460D46354F284615F8014BE65D16F063
:100EDC000806F8D12D2C2FD101262C78851C002B3F
:100EEC0057D0102B09D1302C07D1287800F0DF0017
:100EFC00582849D110236C7802354FF0FF38B8FBD5
:100F0C00F3F8002703FB08F938466FEA0909A4F146
:100F1C00300CBCF1090F14D86446A34222DD002F1B
:100F2C001DDB80451BD301D1A14518DB012700FB3C
:100F3C00034015F8014BEAE72B2C04BF2C78851CD9
:100F4C00CDE7A4F1410CBCF1190F01D8373CE4E713
:100F5C00A4F1610CBCF1190F04D8573CDDE74FF03C
:100F6C00FF37E6E7002F07DA22234FF0FF30CEF8E9
:100F7C00003032B9BDE8F08306B14042002AF9D006
:100F8C0007B1691E1160F5E73024002BB5D1082399
:100F9C00B3E7302CA9D00A23AFE700BFBF1300087A
:100FAC00FFF78CBF2DE9F0410C46496B04F144036B
:100FBC0099421BD14FF4806100F0B8F818B94FF08A
:100FCC00FF30BDE8F0814FF48063A36394F84630A2
:100FDC00606380F8FF3394F8453000F2FD304370C5
:100FEC0094F84430037020600020EAE7A66B770089
:100FFC003A4600F00FF905460028E0D000EB060851
:10100C0001463246404600F01BF8C4E90D57C4F8BF
:10101C000080E9E7014B1868704700BF0000002012
:10102C0070477047034610B5C9B202449342184644
:10103C0001D1002003E0047801338C42F6D110BDBD
:10104C000A44914200F1FF3300D1704710B511F8FA
:10105C00014B914203F8014FF9D110BD38B505464B
:10106C00002940D051F8043C0C1F002BB8BFE418E9
:10107C0000F010F91C4A136833B9636014602846F9
:10108C00BDE8384000F00CB9A34208D920682118FB
:10109C008B4201BF19685B6809182160EDE71A469D
:1010AC005B680BB1A342FAD911685018A0420BD15E
:1010BC0020680144501883421160E0D118685B68C5
:1010CC00014411605360DAE702D90C232B60D6E798
:1010DC00206821188B4201BF19685B6809182160D0
:1010EC0063605460CBE738BD8C02002070B50E4EA7
:1010FC000C463168054611B900F0BCF83060214649
:10110C00284600F0B7F8431C0AD0C41C24F0030492
:10111C00A04207D0211A284600F0ACF8013001D1CA
:10112C004FF0FF34204670BD900200202DE9F041B5
:10113C00CD1C25F0030508350C2D38BF0C25002DD2
:10114C00074601DBA94205D90C2300263B6030463B
:10115C00BDE8F0812E4E00F09DF833681C4634BB80
:10116C0029463846FFF7C2FF431C04464DD134686C
:10117C002646002E40D123683146384604EB03083E
:10118C0000F078F880453AD1216803356D1A25F0C6
:10119C00030508350C2D38BF0C2538462946FFF7BA
:1011AC00A5FF01302BD023682B4423600EE022686E
:1011BC00521B1ED40B2A16D96119A342256018BFE5
:1011CC005960636808BF316062514B60384604F166
:1011DC000B0600F065F826F00706231DF21AB6D0B0
:1011EC009B1BA350B3E76268A3420CBF32605A60EA
:1011FC00ECE723466468B2E734467668B9E70C231B
:10120C0038463B6000F04CF8A1E72560DEE700BFF4
:10121C008C0200202DE9F041804614460E4621B97F
:10122C001146BDE8F041FFF781BF2AB9FFF716FF61
:10123C0025462846BDE8F08100F038F88442074680
:10124C0002D8B4EB500F12D821464046FFF76EFF80
:10125C0005460028EDD0BC422246314628BF3A460E
:10126C00FFF7EEFE31464046FFF7F8FEE1E7354664
:10127C00DFE7000038B50023054D044608462B6017
:10128C0000F01CF8431C02D12B6803B1236038BD5D
:10129C00840200200148FFF7C3BE00BF8802002073
:1012AC000148FFF7BEBE00BF8802002051F8043C85
:1012BC00181F002BBCBF0B58C0187047044A0549B7
:1012CC001368002B08BF0B46184410601846704773
:1012DC009402002098020020F8B500BFF8BC08BCAE
:1012EC009E467047F8B500BFF8BC08BC9E467047D8
:1012FC00A3130008A6130008A91300082A49444E9A
:10130C003F000000424D5354552C204955342C209D
:10131C004C61623300000000537461727400000071
:10132C004F6B2C20737461727400000053746F70D7
:10133C00000000004F6B2C2073746F7000000000D5
:10134C00506572696F640000252A7320256875004A
:10135C004F6B2C20706572696F6420697320736504
:10136C0074000000506572696F64206F7574206F93
:10137C00662072616E67652100000000556E6B6E11
:10138C006F776E20636F6D6D616E642100000000DD
:10139C000D0A00686C4C002B2D0030300078580082
:1013AC00412D46612D66383930313233343536377C
:1013BC005D00002020202020202020202828282804
:1013CC002820202020202020202020202020202009
:1013DC002020208810101010101010101010101059
:1013EC001010100404040404040404040410101069
:1013FC001010101041414141414101010101010115
:10140C0001010101010101010101010101011010A2
:10141C0010101010424242424242020202020202E8
:10142C000202020202020202020202020202101074
:10143C001010200000000000000000000000000060
:10144C000000000000000000000000000000000090
:10145C000000000000000000000000000000000080
:10146C000000000000000000000000000000000070
:10147C000000000000000000000000000000000060
:10148C000000000000000000000000000000000050
:10149C000000000000000000000000000000000040
:1014AC000000000000000000000000000000000030
:1014BC000000000000000000000000000000000020
:1014CC000000000000000000000000000000000010
:1014DC000000000000000000000000000000000000
:1014EC0000000000000000000000000000000000F0
:1014FC0000000000000000000000000000000000E0
:10150C0000000000000000000000000000000000CF
:04151C0000000000CB
:04152000610100085D
:041524003D0100087D
:101528000400002000000000E01400080015000876
:10153800C0140008000000000000000000000000C7
:101548000000000000000000000000000000000093
:101558000000000000000000000000000000000083
:101568000000000000000000000000000000000073
:101578000000000000000000000000000000000063
:04158800000000005F
:04000005080005EDFD
:00000001FF
