:020000040800F2
:1000000000800020B9020008A3020008A502000831
:10001000A7020008A9020008AB02000800000000C7
:10002000000000000000000000000000AD02000819
:10003000AF02000800000000B1020008B30200088F
:100040000103000801030008010300080103000880
:100050000103000801030008010300080103000870
:100060000103000801030008010300080103000860
:100070000103000801030008010300080103000850
:100080000103000801030008010300080103000840
:100090000103000801030008010300080103000830
:1000A0000103000801030008010300080103000820
:1000B0008902000801030008010300080103000889
:1000C0000103000801030008010300080103000800
:1000D00001030008010300080103000801030008F0
:1000E00001030008010300080103000801030008E0
:1000F00001030008000000000103000801030008DC
:1001000000000000000000000103000801030008D7
:1001100001030008010300080103000800000000BB
:1001200001030008000000000000000000000000C3
:0C01300000000000000000005FF808F173
:10013C0010B5054C237833B9044B13B10448AFF315
:10014C0000800123237010BD00000020000000007F
:10015C004C03000808B5034B1BB103490348AFF32C
:10016C00008008BD00000000040000204C030008C3
:10017C0008B500F03BF800F003F800F015F8FEE7C6
:10018C00074AD36943F00203D361064B1A6802F4A1
:10019C0040421A601A6842F480421A60704700BFED
:1001AC0000380240000402400E4A536A43F0010337
:1001BC0053624FF0804347F6FF429A6240F2E732B7
:1001CC00DA62DA6842F00102DA601A6842F001027F
:1001DC001A60054B302283F81C234FF080521A60B2
:1001EC00704700BF0038024000E100E0214A13686C
:1001FC0043F0010313601F4B1B6813F0020FFAD07E
:10020C001D4B1A6842F004021A601A6842F002028E
:10021C001A601A6842F001021A60A3F580639A68AA
:10022C009A609A689A609A689A609A6822F4803206
:10023C009A609A6842F480229A609A6842F480022A
:10024C009A601A6842F080721A600A4B1B6813F0AD
:10025C00007FFAD0074B9A6822F003029A609A68E2
:10026C0042F003029A60034B9B6803F00C030C2BC7
:10027C00F9D1704700380240003C02404FF08042F8
:10028C00136923F00103136102F50132536983F002
:10029C00800353617047FEE7FEE7FEE7FEE7FEE7EB
:1002AC00704770477047704770470000FFF7FCFFBE
:1002BC000B480C490C4A002302E0D458C4500433B8
:1002CC00C4188C42F9D3094A094C002301E013608D
:1002DC000432A242FBD300F00FF8FFF749FF70473E
:1002EC0000000020000000206C030008000000202B
:1002FC001C000020FEE7000070B500260C4D0D4CD4
:10030C00641BA410A64209D100F01AF800260A4D6D
:10031C000A4C641BA410A64205D170BD55F8043BD1
:10032C0098470136EEE755F8043B98470136F2E75B
:10033C0064030008640300086403000868030008F1
:10034C00F8B500BFF8BC08BC9E467047F8B500BFB6
:08035C00F8BC08BC9E46704786
:04036400610100082B
:040368003D0100084B
:04000005080002B934
:00000001FF
