:020000040800F2
:1000000000800020E1040008CD040008CF040008AF
:10001000D1040008D3040008D50400080000000043
:10002000000000000000000000000000D7040008ED
:10003000D904000800000000DB040008DD0400080B
:1000400029050008290500082905000829050008D8
:100050002905000829050008810300082905000872
:1000600029050008290500082905000829050008B8
:1000700029050008290500082905000829050008A8
:100080002905000829050008290500082905000898
:100090002905000829050008290500082905000888
:1000A0002905000829050008290500082905000878
:1000B000650300082905000829050008290500082E
:1000C0002905000829050008290500082905000858
:1000D0002905000829050008A903000829050008CA
:1000E0002905000829050008290500082905000838
:1000F000290500080000000029050008290500085E
:100100000000000000000000290500082905000883
:10011000290500082905000829050008000000003D
:100120002905000800000000000000000000000099
:0C01300000000000000000005FF808F173
:10013C0010B5054C237833B9044B13B10448AFF315
:10014C0000800123237010BD00000020000000007F
:10015C008405000808B5034B1BB103490348AFF3F2
:10016C00008008BD00000000040000208405000889
:10017C00034613F8012B002AFBD1181A01387047DB
:10018C0038B50025064B1D70064C204600F072F960
:10019C004FF480722946204600F0E6F938BD00BFC6
:1001AC001C0000202000002008B54FF480720021B4
:1001BC00094800F0D9F900F087F800F01DF800F0BC
:1001CC0061F800F02DF800F009F9044B1B78002BB6
:1001DC00FBD0FFF7D5FFF8E7200000201C00002023
:1001EC0082B00023019302E0019B01330193019B38
:1001FC008342F9D302B07047074AD36943F0020334
:10020C00D361064B1A6822F440421A601A6842F411
:10021C0080421A60704700BF003802400004024060
:10022C00154BDA6942F00102DA61144A116821F0C7
:10023C0003011160D16821F00301D160A2F57C4269
:10024C00116841F001011160916841F00101916068
:10025C001A6A42F001021A62A3F59C339A6822F0E2
:10026C000F029A609A689A60054B202283F8062345
:10027C0040221A60704700BF003802400000024064
:10028C0000E100E00E4A536A43F0010353624FF061
:10029C00804347F6FF429A6240F2E732DA62DA684C
:1002AC0042F00102DA601A6842F001021A60054B52
:1002BC00302283F81C234FF080521A60704700BF25
:1002CC000038024000E100E0214A136843F00103CA
:1002DC0013601F4B1B6813F0020FFAD01D4B1A68EA
:1002EC0042F004021A601A6842F002021A601A689C
:1002FC0042F001021A60A3F580639A689A609A68CA
:10030C009A609A689A609A6822F480329A609A6825
:10031C0042F480229A609A6842F480029A601A68C9
:10032C0042F080721A600A4B1B6813F0007FFAD0FF
:10033C00074B9A6822F003029A609A6842F0030213
:10034C009A60034B9B6803F00C030C2BF9D170479C
:10035C0000380240003C02404FF08042136923F009
:10036C000103136102F50132536983F08003536179
:10037C007047000008B54FF47A70FFF731FF064A5A
:10038C00536943F0010353614FF08042136883F0CB
:10039C000103136008BD00BF000401400C4B1B6837
:1003AC0013F0200F13D010B50A4C2046FFF7E0FED7
:1003BC00074B5B682354DBB20A2B00D010BD01380D
:1003CC00235C0D2BFAD1044B01221A70F6E770470F
:1003DC0000440040200000201C000020234B5A6ADF
:1003EC0042F400325A62DA6942F00102DA61A3F592
:1003FC0060531A6822F030021A601A6822F0C002A8
:10040C001A601A6842F020021A601A6842F08002E0
:10041C001A601A6A22F470621A621A6A22F4704222
:10042C001A621A6A42F4E0621A621A6A42F4E042F0
:10043C001A62A3F5DE334FF48B729A60DA6842F0DD
:10044C000802DA60DA6842F00402DA60DA6842F430
:10045C000052DA60DA6842F02002DA60044B1022B3
:10046C0083F8262340225A60704700BF00380240B0
:10047C0000E100E038B50546FFF77AFE2A180E4B6E
:10048C0019889B78295293700C4A136823F0400307
:10049C001360002409E02A5D084B5A60074B1B6867
:1004AC0013F0400FFAD00134E4B22846FFF760FE97
:1004BC008442F0D338BD00BF9C05000800440040C6
:1004CC00FEE7FEE7FEE7FEE7FEE770477047704782
:1004DC0070477047FFF7FDFF0B480C490C4A00238F
:1004EC0002E0D458C4500433C4188C42F9D3094ADE
:1004FC00094C002301E013600432A242FBD300F04C
:10050C000FF8FFF751FE704700000020000000209C
:10051C00A80500080000002020010020FEE70000D4
:10052C0070B500260C4D0D4C641BA410A64209D1CD
:10053C0000F022F800260A4D0A4C641BA410A642B7
:10054C0005D170BD55F8043B98470136EEE755F8D8
:10055C00043B98470136F2E7A0050008A005000807
:10056C00A0050008A405000803460244934200D1EC
:10057C00704703F8011BF9E7F8B500BFF8BC08BCDD
:10058C009E467047F8B500BFF8BC08BC9E46704745
:04059C000D0A000044
:0405A00061010008ED
:0405A4003D0100080D
:04000005080004E10A
:00000001FF
