:020000040800F2
:1000000000800020F1010008DD010008DF01000888
:10001000E1010008E3010008E5010008000000001C
:10002000000000000000000000000000E7010008E0
:10003000E901000800000000EB010008ED010008E4
:1000400039020008390200083902000839020008A4
:100050003902000839020008390200083902000894
:100060003902000839020008390200083902000884
:100070003902000839020008390200083902000874
:100080003902000839020008390200083902000864
:100090003902000839020008390200083902000854
:1000A0003902000839020008390200083902000844
:1000B0003902000839020008390200083902000834
:1000C0003902000839020008390200083902000824
:1000D0003902000839020008390200083902000814
:1000E0003902000839020008390200083902000804
:1000F0003902000800000000390200083902000837
:100100000000000000000000390200083902000869
:100110003902000839020008390200080000000016
:10012000390200080000000000000000000000008C
:0C01300000000000000000005FF808F173
:10013C0010B5054C237833B9044B13B10448AFF315
:10014C0000800123237010BD00000020000000007F
:10015C008402000808B5034B1BB103490348AFF3F5
:10016C00008008BD0000000004000020840200088C
:10017C0082B00023019302E0019B01330193019BA8
:10018C008342F9D302B0704708B500F00DF8044A69
:10019C00536983F0800353610248FFF7E9FFF6E7E8
:1001AC0000040240A0860100074AD36943F0020311
:1001BC00D361064B1A6802F440421A601A6842F482
:1001CC0080421A60704700BF0038024000040240B1
:1001DC00FEE7FEE7FEE7FEE7FEE770477047704775
:1001EC0070477047FFF7FDFF0B480C490C4A002382
:1001FC0002E0D458C4500433C4188C42F9D3094AD1
:10020C00094C002301E013600432A242FBD300F03E
:10021C000FF8FFF7B9FF7047000000200000002026
:10022C00A4020008000000201C000020FEE70000D3
:10023C0070B500260C4D0D4C641BA410A64209D1C0
:10024C0000F01AF800260A4D0A4C641BA410A642B2
:10025C0005D170BD55F8043B98470136EEE755F8CB
:10026C00043B98470136F2E79C0200089C02000808
:10027C009C020008A0020008F8B500BFF8BC08BC3E
:10028C009E467047F8B500BFF8BC08BC9E46704748
:04029C0061010008F4
:0402A0003D01000814
:04000005080001F1FD
:00000001FF
