:020000040800F2
:10000000008000207D050008690500086B050008D8
:100010006D0500086F05000871050008000000006C
:100020000000000000000000000000007305000850
:100030007505000800000000770500087905000834
:10004000C5050008C5050008C5050008C505000868
:10005000C5050008C50500081D040008C505000801
:10006000C5050008C5050008C5050008C505000848
:10007000C5050008C5050008C5050008C505000838
:10008000C5050008C5050008C5050008C505000828
:10009000C5050008C5050008C5050008C505000818
:1000A000C5050008C5050008C5050008C505000808
:1000B00001040008C5050008C5050008C5050008BD
:1000C000C5050008C5050008C5050008C5050008E8
:1000D000C5050008C505000845040008C505000859
:1000E000C5050008C5050008C5050008C5050008C8
:1000F000C505000800000000C5050008C50500088A
:100100000000000000000000C5050008C50500084B
:10011000C5050008C5050008C50500080000000069
:10012000C5050008000000000000000000000000FD
:0C01300000000000000000005FF808F173
:10013C0010B5054C237833B9044B13B10448AFF315
:10014C0000800123237010BD00000020000000007F
:10015C004806000808B5034B1BB103490348AFF32D
:10016C00008008BD000000000400002048060008C4
:10017C00034613F8012B002AFBD1181A01387047DB
:10018C0038B5264B00221A7005222549254800F067
:10019C0041FAC0B105222449224800F03BFA48B389
:1001AC00042222491F4800F035FA00282ED14FF0C6
:1001BC008042136823F0010313601D4A1D4B07CACC
:1001CC0003C31A7005E01B4C1B4D0FCD0FC42B68DD
:1001DC002370184C204600F09BF94FF480752A468A
:1001EC000021104800F00EFA2A460021204600F0AB
:1001FC0009FA38BD4FF08042136843F001031360D5
:10020C000E4A0C4B07CA03C31A80E2E7094C0C4D8B
:10021C000FCD0FC42B682370DBE700BF1C00002040
:10022C0060060008200000207C06000890060008EC
:10023C0098060008200100206806000884060008C3
:10024C00A406000808B54FF480720021094800F09C
:10025C00D9F900F087F800F01DF800F061F800F013
:10026C002DF800F009F9044B1B78002BFBD0FFF79D
:10027C0087FFF8E7200000201C00002082B000233C
:10028C00019302E0019B01330193019B8342F9D35B
:10029C0002B07047074AD36943F00203D361064B9F
:1002AC001A6822F440421A601A6842F480421A60BA
:1002BC00704700BF0038024000040240154BDA6959
:1002CC0042F00102DA61144A116821F00301116055
:1002DC00D16821F00301D160A2F57C42116841F094
:1002EC0001011160916841F0010191601A6A42F0BC
:1002FC0001021A62A3F59C339A6822F00F029A60ED
:10030C009A689A60054B202283F8062340221A60D3
:10031C00704700BF003802400000024000E100E0DE
:10032C000E4A536A43F0010353624FF0804347F681
:10033C00FF429A6240F2E732DA62DA6842F0010276
:10034C00DA601A6842F001021A60054B302283F819
:10035C001C234FF080521A60704700BF00380240D7
:10036C0000E100E0214A136843F0010313601F4BC6
:10037C001B6813F0020FFAD01D4B1A6842F00402EE
:10038C001A601A6842F002021A601A6842F00102FE
:10039C001A60A3F580639A689A609A689A609A6862
:1003AC009A609A6822F480329A609A6842F48022A9
:1003BC009A609A6842F480029A601A6842F08072DD
:1003CC001A600A4B1B6813F0007FFAD0074B9A682F
:1003DC0022F003029A609A6842F003029A60034B7F
:1003EC009B6803F00C030C2BF9D1704700380240CA
:1003FC00003C02404FF08042136923F0010313616B
:10040C0002F50132536983F0800353617047000099
:10041C0008B54FF47A70FFF731FF064A536943F081
:10042C00010353614FF08042136883F001031360A2
:10043C0008BD00BF000401400C4B1B6813F0200FDB
:10044C0013D010B50A4C2046FFF792FE074B5B68A1
:10045C002354DBB20A2B00D010BD0138235C0D2BCA
:10046C00FAD1044B01221A70F6E7704700440040A1
:10047C00200000201C000020234B5A6A42F400325A
:10048C005A62DA6942F00102DA61A3F560531A6824
:10049C0022F030021A601A6822F0C0021A601A6840
:1004AC0042F020021A601A6842F080021A601A6A3E
:1004BC0022F470621A621A6A22F470421A621A6A80
:1004CC0042F4E0621A621A6A42F4E0421A62A3F53C
:1004DC00DE334FF48B729A60DA6842F00802DA600D
:1004EC00DA6842F00402DA60DA6842F40052DA6048
:1004FC00DA6842F02002DA60044B102283F82623DB
:10050C0040225A60704700BF0038024000E100E012
:10051C0038B50546FFF72CFE2A180E4B19889B7828
:10052C00295293700C4A136823F040031360002483
:10053C0009E02A5D084B5A60074B1B6813F0400F0B
:10054C00FAD00134E4B22846FFF712FE8442F0D30D
:10055C0038BD00BFB806000800440040FEE7FEE7C7
:10056C00FEE7FEE7FEE7704770477047704770473D
:10057C00FFF7FDFF0B480C490C4A002302E0D4584E
:10058C00C4500433C4188C42F9D3094A094C0023D3
:10059C0001E013600432A242FBD300F00FF8FFF726
:1005AC0051FE70470000002000000020C406000827
:1005BC000000002020020020FEE7000070B500269D
:1005CC000C4D0D4C641BA410A64209D100F036F85A
:1005DC0000260A4D0A4C641BA410A64205D170BD1E
:1005EC0055F8043B98470136EEE755F8043B98471D
:1005FC000136F2E7BC060008BC060008BC06000881
:10060C00C006000803460244934200D1704703F829
:10061C00011BF9E7034610B572B10139841813F8C0
:10062C00010B11F8012F904201D1A34201D1801A84
:10063C0010BD0028F3D1FAE71046F9E7F8B500BF72
:10064C00F8BC08BC9E467047F8B500BFF8BC08BCA7
:04065C009E467047FF
:100660002A49444E3F000000424D5354552C204926
:1006700055342C204C6162330000000053746172C9
:10068000740000004F6B2C207374617274000000C2
:1006900053746F70000000004F6B2C2073746F70E8
:1006A00000000000556E6B6E6F776E20636F6D6D8E
:0C06B000616E6421000000000D0A0000D3
:0406BC0061010008D0
:0406C0003D010008F0
:040000050800057D6D
:00000001FF
